{
  "contractName": "BntyController",
  "abi": [
    {
      "constant": true,
      "inputs": [],
      "name": "owner",
      "outputs": [
        {
          "name": "",
          "type": "address"
        }
      ],
      "payable": false,
      "stateMutability": "view",
      "type": "function"
    },
    {
      "constant": true,
      "inputs": [],
      "name": "Bounty0xToken",
      "outputs": [
        {
          "name": "",
          "type": "address"
        }
      ],
      "payable": false,
      "stateMutability": "view",
      "type": "function"
    },
    {
      "constant": true,
      "inputs": [],
      "name": "stakingContract",
      "outputs": [
        {
          "name": "",
          "type": "address"
        }
      ],
      "payable": false,
      "stateMutability": "view",
      "type": "function"
    },
    {
      "constant": false,
      "inputs": [
        {
          "name": "newOwner",
          "type": "address"
        }
      ],
      "name": "transferOwnership",
      "outputs": [],
      "payable": false,
      "stateMutability": "nonpayable",
      "type": "function"
    },
    {
      "inputs": [
        {
          "name": "_stakingContract",
          "type": "address"
        },
        {
          "name": "_Bounty0xToken",
          "type": "address"
        }
      ],
      "payable": false,
      "stateMutability": "nonpayable",
      "type": "constructor"
    },
    {
      "anonymous": false,
      "inputs": [
        {
          "indexed": true,
          "name": "previousOwner",
          "type": "address"
        },
        {
          "indexed": true,
          "name": "newOwner",
          "type": "address"
        }
      ],
      "name": "OwnershipTransferred",
      "type": "event"
    },
    {
      "constant": false,
      "inputs": [
        {
          "name": "_stakingContract",
          "type": "address"
        }
      ],
      "name": "changeStakingContract",
      "outputs": [],
      "payable": false,
      "stateMutability": "nonpayable",
      "type": "function"
    },
    {
      "constant": false,
      "inputs": [
        {
          "name": "_owner",
          "type": "address"
        },
        {
          "name": "_amount",
          "type": "uint256"
        }
      ],
      "name": "destroyTokensInBntyTokenContract",
      "outputs": [
        {
          "name": "",
          "type": "bool"
        }
      ],
      "payable": false,
      "stateMutability": "nonpayable",
      "type": "function"
    },
    {
      "constant": false,
      "inputs": [
        {
          "name": "newController",
          "type": "address"
        }
      ],
      "name": "changeControllerInBntyTokenContract",
      "outputs": [],
      "payable": false,
      "stateMutability": "nonpayable",
      "type": "function"
    },
    {
      "constant": false,
      "inputs": [
        {
          "name": "_owner",
          "type": "address"
        }
      ],
      "name": "proxyPayment",
      "outputs": [
        {
          "name": "",
          "type": "bool"
        }
      ],
      "payable": true,
      "stateMutability": "payable",
      "type": "function"
    },
    {
      "constant": false,
      "inputs": [
        {
          "name": "_from",
          "type": "address"
        },
        {
          "name": "_to",
          "type": "address"
        },
        {
          "name": "_amount",
          "type": "uint256"
        }
      ],
      "name": "onTransfer",
      "outputs": [
        {
          "name": "",
          "type": "bool"
        }
      ],
      "payable": false,
      "stateMutability": "nonpayable",
      "type": "function"
    },
    {
      "constant": false,
      "inputs": [
        {
          "name": "_owner",
          "type": "address"
        },
        {
          "name": "_spender",
          "type": "address"
        },
        {
          "name": "_amount",
          "type": "uint256"
        }
      ],
      "name": "onApprove",
      "outputs": [
        {
          "name": "",
          "type": "bool"
        }
      ],
      "payable": false,
      "stateMutability": "nonpayable",
      "type": "function"
    }
  ],
  "bytecode": "0x608060405234801561001057600080fd5b50604051604080610a9f8339810180604052810190808051906020019092919080519060200190929190505050336000806101000a81548173ffffffffffffffffffffffffffffffffffffffff021916908373ffffffffffffffffffffffffffffffffffffffff16021790555081600160006101000a81548173ffffffffffffffffffffffffffffffffffffffff021916908373ffffffffffffffffffffffffffffffffffffffff16021790555080600260006101000a81548173ffffffffffffffffffffffffffffffffffffffff021916908373ffffffffffffffffffffffffffffffffffffffff160217905550505061098f806101106000396000f3006080604052600436106100a4576000357c0100000000000000000000000000000000000000000000000000000000900463ffffffff168063252f4977146100a95780634a3931491461010e5780638da5cb5b1461019357806394db4d05146101ea578063baad08281461022d578063c7aaa83f14610270578063da682aeb146102c7578063ee99205c1461034c578063f2fde38b146103a3578063f48c3054146103e6575b600080fd5b3480156100b557600080fd5b506100f4600480360381019080803573ffffffffffffffffffffffffffffffffffffffff16906020019092919080359060200190929190505050610434565b604051808215151515815260200191505060405180910390f35b34801561011a57600080fd5b50610179600480360381019080803573ffffffffffffffffffffffffffffffffffffffff169060200190929190803573ffffffffffffffffffffffffffffffffffffffff169060200190929190803590602001909291905050506105a7565b604051808215151515815260200191505060405180910390f35b34801561019f57600080fd5b506101a86105b4565b604051808273ffffffffffffffffffffffffffffffffffffffff1673ffffffffffffffffffffffffffffffffffffffff16815260200191505060405180910390f35b3480156101f657600080fd5b5061022b600480360381019080803573ffffffffffffffffffffffffffffffffffffffff1690602001909291905050506105d9565b005b34801561023957600080fd5b5061026e600480360381019080803573ffffffffffffffffffffffffffffffffffffffff169060200190929190505050610678565b005b34801561027c57600080fd5b506102856107ab565b604051808273ffffffffffffffffffffffffffffffffffffffff1673ffffffffffffffffffffffffffffffffffffffff16815260200191505060405180910390f35b3480156102d357600080fd5b50610332600480360381019080803573ffffffffffffffffffffffffffffffffffffffff169060200190929190803573ffffffffffffffffffffffffffffffffffffffff169060200190929190803590602001909291905050506107d1565b604051808215151515815260200191505060405180910390f35b34801561035857600080fd5b506103616107de565b604051808273ffffffffffffffffffffffffffffffffffffffff1673ffffffffffffffffffffffffffffffffffffffff16815260200191505060405180910390f35b3480156103af57600080fd5b506103e4600480360381019080803573ffffffffffffffffffffffffffffffffffffffff169060200190929190505050610804565b005b61041a600480360381019080803573ffffffffffffffffffffffffffffffffffffffff169060200190929190505050610959565b604051808215151515815260200191505060405180910390f35b6000600160009054906101000a900473ffffffffffffffffffffffffffffffffffffffff1673ffffffffffffffffffffffffffffffffffffffff163373ffffffffffffffffffffffffffffffffffffffff1614151561049257600080fd5b600260009054906101000a900473ffffffffffffffffffffffffffffffffffffffff1673ffffffffffffffffffffffffffffffffffffffff1663d3ce77fe84846040518363ffffffff167c0100000000000000000000000000000000000000000000000000000000028152600401808373ffffffffffffffffffffffffffffffffffffffff1673ffffffffffffffffffffffffffffffffffffffff16815260200182815260200192505050602060405180830381600087803b15801561055757600080fd5b505af115801561056b573d6000803e3d6000fd5b505050506040513d602081101561058157600080fd5b8101908080519060200190929190505050151561059d57600080fd5b6001905092915050565b6000600190509392505050565b6000809054906101000a900473ffffffffffffffffffffffffffffffffffffffff1681565b6000809054906101000a900473ffffffffffffffffffffffffffffffffffffffff1673ffffffffffffffffffffffffffffffffffffffff163373ffffffffffffffffffffffffffffffffffffffff1614151561063457600080fd5b80600160006101000a81548173ffffffffffffffffffffffffffffffffffffffff021916908373ffffffffffffffffffffffffffffffffffffffff16021790555050565b6000809054906101000a900473ffffffffffffffffffffffffffffffffffffffff1673ffffffffffffffffffffffffffffffffffffffff163373ffffffffffffffffffffffffffffffffffffffff161415156106d357600080fd5b600260009054906101000a900473ffffffffffffffffffffffffffffffffffffffff1673ffffffffffffffffffffffffffffffffffffffff16633cebb823826040518263ffffffff167c0100000000000000000000000000000000000000000000000000000000028152600401808273ffffffffffffffffffffffffffffffffffffffff1673ffffffffffffffffffffffffffffffffffffffff168152602001915050600060405180830381600087803b15801561079057600080fd5b505af11580156107a4573d6000803e3d6000fd5b5050505050565b600260009054906101000a900473ffffffffffffffffffffffffffffffffffffffff1681565b6000600190509392505050565b600160009054906101000a900473ffffffffffffffffffffffffffffffffffffffff1681565b6000809054906101000a900473ffffffffffffffffffffffffffffffffffffffff1673ffffffffffffffffffffffffffffffffffffffff163373ffffffffffffffffffffffffffffffffffffffff1614151561085f57600080fd5b600073ffffffffffffffffffffffffffffffffffffffff168173ffffffffffffffffffffffffffffffffffffffff161415151561089b57600080fd5b8073ffffffffffffffffffffffffffffffffffffffff166000809054906101000a900473ffffffffffffffffffffffffffffffffffffffff1673ffffffffffffffffffffffffffffffffffffffff167f8be0079c531659141344cd1fd0a4f28419497f9722a3daafe3b4186f6b6457e060405160405180910390a3806000806101000a81548173ffffffffffffffffffffffffffffffffffffffff021916908373ffffffffffffffffffffffffffffffffffffffff16021790555050565b60008090509190505600a165627a7a72305820b8255df5d004b1bca9bcd2de4add7424d79d67d21b45967cc0d039d5e05ec8fa0029",
  "source": "pragma solidity ^0.4.21;\n\n\n\n\n/**\n * @title Ownable\n * @dev The Ownable contract has an owner address, and provides basic authorization control\n * functions, this simplifies the implementation of \"user permissions\".\n */\ncontract Ownable {\n  address public owner;\n\n\n  event OwnershipTransferred(address indexed previousOwner, address indexed newOwner);\n\n\n  /**\n   * @dev The Ownable constructor sets the original `owner` of the contract to the sender\n   * account.\n   */\n  function Ownable() public {\n    owner = msg.sender;\n  }\n\n\n  /**\n   * @dev Throws if called by any account other than the owner.\n   */\n  modifier onlyOwner() {\n    require(msg.sender == owner);\n    _;\n  }\n\n\n  /**\n   * @dev Allows the current owner to transfer control of the contract to a newOwner.\n   * @param newOwner The address to transfer ownership to.\n   */\n  function transferOwnership(address newOwner) public onlyOwner {\n    require(newOwner != address(0));\n    OwnershipTransferred(owner, newOwner);\n    owner = newOwner;\n  }\n\n}\n\n\n\n\n\n// File: minimetoken/contracts/TokenController.sol\n\n/// @dev The token controller contract must implement these functions\ncontract TokenController {\n    /// @notice Called when `_owner` sends ether to the MiniMe Token contract\n    /// @param _owner The address that sent the ether to create tokens\n    /// @return True if the ether is accepted, false if it throws\n    function proxyPayment(address _owner) public payable returns(bool);\n\n    /// @notice Notifies the controller about a token transfer allowing the\n    ///  controller to react if desired\n    /// @param _from The origin of the transfer\n    /// @param _to The destination of the transfer\n    /// @param _amount The amount of the transfer\n    /// @return False if the controller does not authorize the transfer\n    function onTransfer(address _from, address _to, uint _amount) public returns(bool);\n\n    /// @notice Notifies the controller about an approval allowing the\n    ///  controller to react if desired\n    /// @param _owner The address that calls `approve()`\n    /// @param _spender The spender in the `approve()` call\n    /// @param _amount The amount in the `approve()` call\n    /// @return False if the controller does not authorize the approval\n    function onApprove(address _owner, address _spender, uint _amount) public\n        returns(bool);\n}\n\n\n\n\ncontract BntyTokenInterface {\n  function destroyTokens(address _owner, uint _amount) public returns (bool);\n  function changeController(address newController) public;\n}\n\n\n\n\ncontract BntyController is Ownable, TokenController {\n    \n    address public stakingContract;\n    address public Bounty0xToken;\n    \n    modifier onlyStakingContract() {\n        require(msg.sender == stakingContract);\n        _;\n    }\n    \n    \n    constructor(address _stakingContract, address _Bounty0xToken) public {\n        stakingContract = _stakingContract;\n        Bounty0xToken = _Bounty0xToken;\n    }\n    \n    \n    function changeStakingContract(address _stakingContract) onlyOwner public {\n        stakingContract = _stakingContract;\n    }\n\n    function destroyTokensInBntyTokenContract(address _owner, uint _amount) onlyStakingContract public returns (bool) {\n        require(BntyTokenInterface(Bounty0xToken).destroyTokens(_owner, _amount));\n        return true;\n    }\n    \n    function changeControllerInBntyTokenContract(address newController) onlyOwner public {\n        BntyTokenInterface(Bounty0xToken).changeController(newController);\n    }\n\n\n    function proxyPayment(address _owner) public payable returns (bool) {\n        return false;\n    }\n\n    function onTransfer(address _from, address _to, uint _amount) public returns (bool) {\n        return true;\n    }\n    \n    function onApprove(address _owner, address _spender, uint _amount) public returns (bool) {\n        return true;\n    }\n    \n}\n",
  "sourcePath": "/Users/Alexander/Desktop/Bounty0x/Bounty0xStakingContract/contracts/BntyController.sol",
  "compiler": {
    "name": "solc",
    "version": "0.4.24+commit.e67f0147.Emscripten.clang"
  },
  "schemaVersion": "2.0.1",
  "updatedAt": "2018-12-22T17:11:00.103Z"
}