{
  "contractName": "Bounty0xStaking",
  "abi": [
    {
      "constant": false,
      "inputs": [
        {
          "name": "_bountyId",
          "type": "uint256"
        },
        {
          "name": "_amount",
          "type": "uint256"
        }
      ],
      "name": "stakeAsSheriff",
      "outputs": [],
      "payable": false,
      "stateMutability": "nonpayable",
      "type": "function"
    },
    {
      "constant": true,
      "inputs": [
        {
          "name": "",
          "type": "uint256"
        },
        {
          "name": "",
          "type": "address"
        }
      ],
      "name": "stakedByHunters",
      "outputs": [
        {
          "name": "",
          "type": "uint256"
        }
      ],
      "payable": false,
      "stateMutability": "view",
      "type": "function"
    },
    {
      "constant": true,
      "inputs": [
        {
          "name": "",
          "type": "uint256"
        },
        {
          "name": "",
          "type": "address"
        }
      ],
      "name": "stakedBySheriffs",
      "outputs": [
        {
          "name": "",
          "type": "uint256"
        }
      ],
      "payable": false,
      "stateMutability": "view",
      "type": "function"
    },
    {
      "constant": false,
      "inputs": [
        {
          "name": "_amount",
          "type": "uint256"
        }
      ],
      "name": "depositAsSheriff",
      "outputs": [],
      "payable": false,
      "stateMutability": "nonpayable",
      "type": "function"
    },
    {
      "constant": false,
      "inputs": [
        {
          "name": "_bountyId",
          "type": "uint256"
        },
        {
          "name": "_from",
          "type": "address"
        },
        {
          "name": "_to",
          "type": "address"
        },
        {
          "name": "_amount",
          "type": "uint256"
        }
      ],
      "name": "releaseHunterStake",
      "outputs": [],
      "payable": false,
      "stateMutability": "nonpayable",
      "type": "function"
    },
    {
      "constant": true,
      "inputs": [],
      "name": "owner",
      "outputs": [
        {
          "name": "",
          "type": "address"
        }
      ],
      "payable": false,
      "stateMutability": "view",
      "type": "function"
    },
    {
      "constant": false,
      "inputs": [
        {
          "name": "_bountyId",
          "type": "uint256"
        },
        {
          "name": "_amount",
          "type": "uint256"
        }
      ],
      "name": "stakeAsHunter",
      "outputs": [],
      "payable": false,
      "stateMutability": "nonpayable",
      "type": "function"
    },
    {
      "constant": true,
      "inputs": [
        {
          "name": "",
          "type": "address"
        }
      ],
      "name": "sheriffsDeposits",
      "outputs": [
        {
          "name": "",
          "type": "uint256"
        }
      ],
      "payable": false,
      "stateMutability": "view",
      "type": "function"
    },
    {
      "constant": true,
      "inputs": [
        {
          "name": "",
          "type": "address"
        }
      ],
      "name": "huntersDeposits",
      "outputs": [
        {
          "name": "",
          "type": "uint256"
        }
      ],
      "payable": false,
      "stateMutability": "view",
      "type": "function"
    },
    {
      "constant": false,
      "inputs": [
        {
          "name": "_bountyId",
          "type": "uint256"
        },
        {
          "name": "_from",
          "type": "address"
        },
        {
          "name": "_to",
          "type": "address"
        },
        {
          "name": "_amount",
          "type": "uint256"
        }
      ],
      "name": "releaseSheriffStake",
      "outputs": [],
      "payable": false,
      "stateMutability": "nonpayable",
      "type": "function"
    },
    {
      "constant": true,
      "inputs": [],
      "name": "Bounty0xToken",
      "outputs": [
        {
          "name": "",
          "type": "address"
        }
      ],
      "payable": false,
      "stateMutability": "view",
      "type": "function"
    },
    {
      "constant": false,
      "inputs": [
        {
          "name": "newOwner",
          "type": "address"
        }
      ],
      "name": "transferOwnership",
      "outputs": [],
      "payable": false,
      "stateMutability": "nonpayable",
      "type": "function"
    },
    {
      "constant": false,
      "inputs": [
        {
          "name": "_amount",
          "type": "uint256"
        }
      ],
      "name": "depositAsHunter",
      "outputs": [],
      "payable": false,
      "stateMutability": "nonpayable",
      "type": "function"
    },
    {
      "inputs": [
        {
          "name": "_bounty0xToken",
          "type": "address"
        }
      ],
      "payable": false,
      "stateMutability": "nonpayable",
      "type": "constructor"
    },
    {
      "anonymous": false,
      "inputs": [
        {
          "indexed": false,
          "name": "depositor",
          "type": "address"
        },
        {
          "indexed": false,
          "name": "amount",
          "type": "uint256"
        },
        {
          "indexed": false,
          "name": "balance",
          "type": "uint256"
        }
      ],
      "name": "DepositByHunter",
      "type": "event"
    },
    {
      "anonymous": false,
      "inputs": [
        {
          "indexed": false,
          "name": "depositor",
          "type": "address"
        },
        {
          "indexed": false,
          "name": "amount",
          "type": "uint256"
        },
        {
          "indexed": false,
          "name": "balance",
          "type": "uint256"
        }
      ],
      "name": "DepositBySheriff",
      "type": "event"
    },
    {
      "anonymous": false,
      "inputs": [
        {
          "indexed": false,
          "name": "bountyId",
          "type": "uint256"
        },
        {
          "indexed": false,
          "name": "hunter",
          "type": "address"
        },
        {
          "indexed": false,
          "name": "amount",
          "type": "uint256"
        }
      ],
      "name": "StakeByHunter",
      "type": "event"
    },
    {
      "anonymous": false,
      "inputs": [
        {
          "indexed": false,
          "name": "bountyId",
          "type": "uint256"
        },
        {
          "indexed": false,
          "name": "sheriff",
          "type": "address"
        },
        {
          "indexed": false,
          "name": "amount",
          "type": "uint256"
        }
      ],
      "name": "StakeBySheriff",
      "type": "event"
    },
    {
      "anonymous": false,
      "inputs": [
        {
          "indexed": false,
          "name": "bountyId",
          "type": "uint256"
        },
        {
          "indexed": false,
          "name": "from",
          "type": "address"
        },
        {
          "indexed": false,
          "name": "to",
          "type": "address"
        },
        {
          "indexed": false,
          "name": "amount",
          "type": "uint256"
        }
      ],
      "name": "StakeOfHunterRelease",
      "type": "event"
    },
    {
      "anonymous": false,
      "inputs": [
        {
          "indexed": false,
          "name": "bountyId",
          "type": "uint256"
        },
        {
          "indexed": false,
          "name": "from",
          "type": "address"
        },
        {
          "indexed": false,
          "name": "to",
          "type": "address"
        },
        {
          "indexed": false,
          "name": "amount",
          "type": "uint256"
        }
      ],
      "name": "StakeOfSheriffRelease",
      "type": "event"
    },
    {
      "anonymous": false,
      "inputs": [
        {
          "indexed": true,
          "name": "previousOwner",
          "type": "address"
        },
        {
          "indexed": true,
          "name": "newOwner",
          "type": "address"
        }
      ],
      "name": "OwnershipTransferred",
      "type": "event"
    }
  ],
  "bytecode": "0x6060604052341561000f57600080fd5b60405160208061167c83398101604052808051906020019091905050336000806101000a81548173ffffffffffffffffffffffffffffffffffffffff021916908373ffffffffffffffffffffffffffffffffffffffff16021790555080600160006101000a81548173ffffffffffffffffffffffffffffffffffffffff021916908373ffffffffffffffffffffffffffffffffffffffff160217905550506115c0806100bc6000396000f3006060604052600436106100c5576000357c0100000000000000000000000000000000000000000000000000000000900463ffffffff168063052575df146100ca5780630c48e2fd146100f65780631fc3aede1461014c5780634ad04e97146101a25780636a0231ef146101c55780638da5cb5b1461022f57806390541194146102845780639da65d57146102b0578063b33d03db146102fd578063c3fcfd281461034a578063c7aaa83f146103b4578063f2fde38b14610409578063f432440114610442575b600080fd5b34156100d557600080fd5b6100f46004808035906020019091908035906020019091905050610465565b005b341561010157600080fd5b610136600480803590602001909190803573ffffffffffffffffffffffffffffffffffffffff16906020019091905050610664565b6040518082815260200191505060405180910390f35b341561015757600080fd5b61018c600480803590602001909190803573ffffffffffffffffffffffffffffffffffffffff16906020019091905050610689565b6040518082815260200191505060405180910390f35b34156101ad57600080fd5b6101c360048080359060200190919050506106ae565b005b34156101d057600080fd5b61022d600480803590602001909190803573ffffffffffffffffffffffffffffffffffffffff1690602001909190803573ffffffffffffffffffffffffffffffffffffffff16906020019091908035906020019091905050610916565b005b341561023a57600080fd5b610242610c1e565b604051808273ffffffffffffffffffffffffffffffffffffffff1673ffffffffffffffffffffffffffffffffffffffff16815260200191505060405180910390f35b341561028f57600080fd5b6102ae6004808035906020019091908035906020019091905050610c43565b005b34156102bb57600080fd5b6102e7600480803573ffffffffffffffffffffffffffffffffffffffff16906020019091905050610e42565b6040518082815260200191505060405180910390f35b341561030857600080fd5b610334600480803573ffffffffffffffffffffffffffffffffffffffff16906020019091905050610e5a565b6040518082815260200191505060405180910390f35b341561035557600080fd5b6103b2600480803590602001909190803573ffffffffffffffffffffffffffffffffffffffff1690602001909190803573ffffffffffffffffffffffffffffffffffffffff16906020019091908035906020019091905050610e72565b005b34156103bf57600080fd5b6103c761117a565b604051808273ffffffffffffffffffffffffffffffffffffffff1673ffffffffffffffffffffffffffffffffffffffff16815260200191505060405180910390f35b341561041457600080fd5b610440600480803573ffffffffffffffffffffffffffffffffffffffff169060200190919050506111a0565b005b341561044d57600080fd5b61046360048080359060200190919050506112f5565b005b80600360003373ffffffffffffffffffffffffffffffffffffffff1673ffffffffffffffffffffffffffffffffffffffff16815260200190815260200160002054101515156104b357600080fd5b6104fc600360003373ffffffffffffffffffffffffffffffffffffffff1673ffffffffffffffffffffffffffffffffffffffff168152602001908152602001600020548261155d565b600360003373ffffffffffffffffffffffffffffffffffffffff1673ffffffffffffffffffffffffffffffffffffffff168152602001908152602001600020819055506105996005600084815260200190815260200160002060003373ffffffffffffffffffffffffffffffffffffffff1673ffffffffffffffffffffffffffffffffffffffff1681526020019081526020016000205482611576565b6005600084815260200190815260200160002060003373ffffffffffffffffffffffffffffffffffffffff1673ffffffffffffffffffffffffffffffffffffffff168152602001908152602001600020819055507f50263bfc0ed722fbcefc6fcfc77caa9c04f9ce9140bd1e3d181f6959dc353119823383604051808481526020018373ffffffffffffffffffffffffffffffffffffffff1673ffffffffffffffffffffffffffffffffffffffff168152602001828152602001935050505060405180910390a15050565b6004602052816000526040600020602052806000526040600020600091509150505481565b6005602052816000526040600020602052806000526040600020600091509150505481565b600160009054906101000a900473ffffffffffffffffffffffffffffffffffffffff1673ffffffffffffffffffffffffffffffffffffffff166323b872dd3330846000604051602001526040518463ffffffff167c0100000000000000000000000000000000000000000000000000000000028152600401808473ffffffffffffffffffffffffffffffffffffffff1673ffffffffffffffffffffffffffffffffffffffff1681526020018373ffffffffffffffffffffffffffffffffffffffff1673ffffffffffffffffffffffffffffffffffffffff1681526020018281526020019350505050602060405180830381600087803b15156107af57600080fd5b6102c65a03f115156107c057600080fd5b5050506040518051905015156107d557600080fd5b61081e600360003373ffffffffffffffffffffffffffffffffffffffff1673ffffffffffffffffffffffffffffffffffffffff1681526020019081526020016000205482611576565b600360003373ffffffffffffffffffffffffffffffffffffffff1673ffffffffffffffffffffffffffffffffffffffff168152602001908152602001600020819055507f16b83fe150fbba630dd333330c408fc1c6126107b8ea6cb80113e688e5b61a433382600360003373ffffffffffffffffffffffffffffffffffffffff1673ffffffffffffffffffffffffffffffffffffffff16815260200190815260200160002054604051808473ffffffffffffffffffffffffffffffffffffffff1673ffffffffffffffffffffffffffffffffffffffff168152602001838152602001828152602001935050505060405180910390a150565b6000809054906101000a900473ffffffffffffffffffffffffffffffffffffffff1673ffffffffffffffffffffffffffffffffffffffff163373ffffffffffffffffffffffffffffffffffffffff1614151561097157600080fd5b806004600086815260200190815260200160002060008573ffffffffffffffffffffffffffffffffffffffff1673ffffffffffffffffffffffffffffffffffffffff16815260200190815260200160002054101515156109d057600080fd5b610a2a6004600086815260200190815260200160002060008573ffffffffffffffffffffffffffffffffffffffff1673ffffffffffffffffffffffffffffffffffffffff168152602001908152602001600020548261155d565b6004600086815260200190815260200160002060008573ffffffffffffffffffffffffffffffffffffffff1673ffffffffffffffffffffffffffffffffffffffff16815260200190815260200160002081905550600160009054906101000a900473ffffffffffffffffffffffffffffffffffffffff1673ffffffffffffffffffffffffffffffffffffffff1663a9059cbb83836000604051602001526040518363ffffffff167c0100000000000000000000000000000000000000000000000000000000028152600401808373ffffffffffffffffffffffffffffffffffffffff1673ffffffffffffffffffffffffffffffffffffffff16815260200182815260200192505050602060405180830381600087803b1515610b4b57600080fd5b6102c65a03f11515610b5c57600080fd5b505050604051805190501515610b7157600080fd5b7fee3747be2b3495b8e0cc6b61efb6f8766164e4304feef1c413fe86df84beb10284848484604051808581526020018473ffffffffffffffffffffffffffffffffffffffff1673ffffffffffffffffffffffffffffffffffffffff1681526020018373ffffffffffffffffffffffffffffffffffffffff1673ffffffffffffffffffffffffffffffffffffffff16815260200182815260200194505050505060405180910390a150505050565b6000809054906101000a900473ffffffffffffffffffffffffffffffffffffffff1681565b80600260003373ffffffffffffffffffffffffffffffffffffffff1673ffffffffffffffffffffffffffffffffffffffff1681526020019081526020016000205410151515610c9157600080fd5b610cda600260003373ffffffffffffffffffffffffffffffffffffffff1673ffffffffffffffffffffffffffffffffffffffff168152602001908152602001600020548261155d565b600260003373ffffffffffffffffffffffffffffffffffffffff1673ffffffffffffffffffffffffffffffffffffffff16815260200190815260200160002081905550610d776004600084815260200190815260200160002060003373ffffffffffffffffffffffffffffffffffffffff1673ffffffffffffffffffffffffffffffffffffffff1681526020019081526020016000205482611576565b6004600084815260200190815260200160002060003373ffffffffffffffffffffffffffffffffffffffff1673ffffffffffffffffffffffffffffffffffffffff168152602001908152602001600020819055507f5b8377e5d35d53d10b62b5c8d1674d0c8bfadf05846a7eb4e62048021687d4bb823383604051808481526020018373ffffffffffffffffffffffffffffffffffffffff1673ffffffffffffffffffffffffffffffffffffffff168152602001828152602001935050505060405180910390a15050565b60036020528060005260406000206000915090505481565b60026020528060005260406000206000915090505481565b6000809054906101000a900473ffffffffffffffffffffffffffffffffffffffff1673ffffffffffffffffffffffffffffffffffffffff163373ffffffffffffffffffffffffffffffffffffffff16141515610ecd57600080fd5b806005600086815260200190815260200160002060008573ffffffffffffffffffffffffffffffffffffffff1673ffffffffffffffffffffffffffffffffffffffff1681526020019081526020016000205410151515610f2c57600080fd5b610f866005600086815260200190815260200160002060008573ffffffffffffffffffffffffffffffffffffffff1673ffffffffffffffffffffffffffffffffffffffff168152602001908152602001600020548261155d565b6005600086815260200190815260200160002060008573ffffffffffffffffffffffffffffffffffffffff1673ffffffffffffffffffffffffffffffffffffffff16815260200190815260200160002081905550600160009054906101000a900473ffffffffffffffffffffffffffffffffffffffff1673ffffffffffffffffffffffffffffffffffffffff1663a9059cbb83836000604051602001526040518363ffffffff167c0100000000000000000000000000000000000000000000000000000000028152600401808373ffffffffffffffffffffffffffffffffffffffff1673ffffffffffffffffffffffffffffffffffffffff16815260200182815260200192505050602060405180830381600087803b15156110a757600080fd5b6102c65a03f115156110b857600080fd5b5050506040518051905015156110cd57600080fd5b7fb130908538c7ba76c2065eb3bdbeb7d3420d42c7877dadf1ba8c79b4b4a7be9d84848484604051808581526020018473ffffffffffffffffffffffffffffffffffffffff1673ffffffffffffffffffffffffffffffffffffffff1681526020018373ffffffffffffffffffffffffffffffffffffffff1673ffffffffffffffffffffffffffffffffffffffff16815260200182815260200194505050505060405180910390a150505050565b600160009054906101000a900473ffffffffffffffffffffffffffffffffffffffff1681565b6000809054906101000a900473ffffffffffffffffffffffffffffffffffffffff1673ffffffffffffffffffffffffffffffffffffffff163373ffffffffffffffffffffffffffffffffffffffff161415156111fb57600080fd5b600073ffffffffffffffffffffffffffffffffffffffff168173ffffffffffffffffffffffffffffffffffffffff161415151561123757600080fd5b8073ffffffffffffffffffffffffffffffffffffffff166000809054906101000a900473ffffffffffffffffffffffffffffffffffffffff1673ffffffffffffffffffffffffffffffffffffffff167f8be0079c531659141344cd1fd0a4f28419497f9722a3daafe3b4186f6b6457e060405160405180910390a3806000806101000a81548173ffffffffffffffffffffffffffffffffffffffff021916908373ffffffffffffffffffffffffffffffffffffffff16021790555050565b600160009054906101000a900473ffffffffffffffffffffffffffffffffffffffff1673ffffffffffffffffffffffffffffffffffffffff166323b872dd3330846000604051602001526040518463ffffffff167c0100000000000000000000000000000000000000000000000000000000028152600401808473ffffffffffffffffffffffffffffffffffffffff1673ffffffffffffffffffffffffffffffffffffffff1681526020018373ffffffffffffffffffffffffffffffffffffffff1673ffffffffffffffffffffffffffffffffffffffff1681526020018281526020019350505050602060405180830381600087803b15156113f657600080fd5b6102c65a03f1151561140757600080fd5b50505060405180519050151561141c57600080fd5b611465600260003373ffffffffffffffffffffffffffffffffffffffff1673ffffffffffffffffffffffffffffffffffffffff1681526020019081526020016000205482611576565b600260003373ffffffffffffffffffffffffffffffffffffffff1673ffffffffffffffffffffffffffffffffffffffff168152602001908152602001600020819055507fcac794e232f58579de770e7bef77eb205390128015940a037dc9ecdc82b1f3973382600260003373ffffffffffffffffffffffffffffffffffffffff1673ffffffffffffffffffffffffffffffffffffffff16815260200190815260200160002054604051808473ffffffffffffffffffffffffffffffffffffffff1673ffffffffffffffffffffffffffffffffffffffff168152602001838152602001828152602001935050505060405180910390a150565b600082821115151561156b57fe5b818303905092915050565b600080828401905083811015151561158a57fe5b80915050929150505600a165627a7a723058202f0067ea89c4a6bc92e7500beb8017e2ae0970d02181e6b05c61d8c548470f810029",
  "source": "pragma solidity ^0.4.18;\n\nimport 'zeppelin-solidity/contracts/math/SafeMath.sol';\nimport 'zeppelin-solidity/contracts/ownership/Ownable.sol';\nimport 'zeppelin-solidity/contracts/token/ERC20.sol';\n\n\ncontract Bounty0xStaking is Ownable {\n\n    using SafeMath for uint256;\n\n    address public Bounty0xToken;\n\n    mapping (address => uint) public huntersDeposits;\n    mapping (address => uint) public sheriffsDeposits;\n\n    mapping (uint => mapping (address => uint)) public stakedByHunters; // mapping of bounty ids to mapping of staked amounts of bounty token by hunters\n    mapping (uint => mapping (address => uint)) public stakedBySheriffs; // mapping of bounty ids to mapping of staked amounts of bounty token by sheriffs\n\n\n    event DepositByHunter(address depositor, uint amount, uint balance);\n    event DepositBySheriff(address depositor, uint amount, uint balance);\n\n    event StakeByHunter(uint bountyId, address hunter, uint amount);\n    event StakeBySheriff(uint bountyId, address sheriff, uint amount);\n\n    event StakeOfHunterRelease(uint bountyId, address from, address to, uint amount);\n    event StakeOfSheriffRelease(uint bountyId, address from, address to, uint amount);\n\n\n    function Bounty0xStaking(address _bounty0xToken) public {\n        Bounty0xToken = _bounty0xToken;\n    }\n\n\n    function depositAsHunter(uint _amount) public {\n        //remember to call Token(address).approve(this, amount) or this contract will not be able to do the transfer on your behalf.\n        require(ERC20(Bounty0xToken).transferFrom(msg.sender, this, _amount));\n        huntersDeposits[msg.sender] = SafeMath.add(huntersDeposits[msg.sender], _amount);\n\n        DepositByHunter(msg.sender, _amount, huntersDeposits[msg.sender]);\n    }\n\n    function depositAsSheriff(uint _amount) public {\n        //remember to call Token(address).approve(this, amount) or this contract will not be able to do the transfer on your behalf.\n        require(ERC20(Bounty0xToken).transferFrom(msg.sender, this, _amount));\n        sheriffsDeposits[msg.sender] = SafeMath.add(sheriffsDeposits[msg.sender], _amount);\n\n        DepositBySheriff(msg.sender, _amount, sheriffsDeposits[msg.sender]);\n    }\n\n\n    function stakeAsHunter(uint _bountyId, uint _amount) public {\n        require(huntersDeposits[msg.sender] >= _amount);\n        huntersDeposits[msg.sender] = SafeMath.sub(huntersDeposits[msg.sender], _amount);\n        stakedByHunters[_bountyId][msg.sender] = SafeMath.add(stakedByHunters[_bountyId][msg.sender], _amount);\n\n        StakeByHunter(_bountyId, msg.sender, _amount);\n    }\n\n    function stakeAsSheriff(uint _bountyId, uint _amount) public {\n        require(sheriffsDeposits[msg.sender] >= _amount);\n        sheriffsDeposits[msg.sender] = SafeMath.sub(sheriffsDeposits[msg.sender], _amount);\n        stakedBySheriffs[_bountyId][msg.sender] = SafeMath.add(stakedBySheriffs[_bountyId][msg.sender], _amount);\n\n        StakeBySheriff(_bountyId, msg.sender, _amount);\n    }\n\n\n    function releaseHunterStake(uint _bountyId, address _from, address _to, uint _amount) public onlyOwner {\n        require(stakedByHunters[_bountyId][_from] >= _amount);\n\n        stakedByHunters[_bountyId][_from] = SafeMath.sub(stakedByHunters[_bountyId][_from], _amount);\n        require(ERC20(Bounty0xToken).transfer(_to, _amount));\n\n        StakeOfHunterRelease(_bountyId, _from, _to, _amount);\n    }\n\n    function releaseSheriffStake(uint _bountyId, address _from, address _to, uint _amount) public onlyOwner {\n        require(stakedBySheriffs[_bountyId][_from] >= _amount);\n\n        stakedBySheriffs[_bountyId][_from] = SafeMath.sub(stakedBySheriffs[_bountyId][_from], _amount);\n        require(ERC20(Bounty0xToken).transfer(_to, _amount));\n\n        StakeOfSheriffRelease(_bountyId, _from, _to, _amount);\n    }\n\n}\n",
  "sourcePath": "/Users/Alexander/Desktop/Bounty0xStakingContract/contracts/Bounty0xStaking.sol",
  "compiler": {
    "name": "solc",
    "version": "0.4.18+commit.9cf6e910.Emscripten.clang"
  },
  "schemaVersion": "1.0.1",
  "updatedAt": "2018-03-03T15:48:16.719Z"
}