{
  "contractName": "Bounty0xStaking",
  "abi": [
    {
      "constant": true,
      "inputs": [
        {
          "name": "",
          "type": "address"
        }
      ],
      "name": "balances",
      "outputs": [
        {
          "name": "",
          "type": "uint256"
        }
      ],
      "payable": false,
      "stateMutability": "view",
      "type": "function"
    },
    {
      "constant": false,
      "inputs": [
        {
          "name": "_amount",
          "type": "uint256"
        }
      ],
      "name": "withdraw",
      "outputs": [],
      "payable": false,
      "stateMutability": "nonpayable",
      "type": "function"
    },
    {
      "constant": false,
      "inputs": [
        {
          "name": "_submissionId",
          "type": "uint256"
        },
        {
          "name": "_amount",
          "type": "uint256"
        }
      ],
      "name": "stake",
      "outputs": [],
      "payable": false,
      "stateMutability": "nonpayable",
      "type": "function"
    },
    {
      "constant": true,
      "inputs": [],
      "name": "owner",
      "outputs": [
        {
          "name": "",
          "type": "address"
        }
      ],
      "payable": false,
      "stateMutability": "view",
      "type": "function"
    },
    {
      "constant": false,
      "inputs": [
        {
          "name": "_submissionIds",
          "type": "uint256[]"
        },
        {
          "name": "_amounts",
          "type": "uint256[]"
        }
      ],
      "name": "stakeToMany",
      "outputs": [],
      "payable": false,
      "stateMutability": "nonpayable",
      "type": "function"
    },
    {
      "constant": true,
      "inputs": [
        {
          "name": "",
          "type": "uint256"
        },
        {
          "name": "",
          "type": "address"
        }
      ],
      "name": "stakes",
      "outputs": [
        {
          "name": "",
          "type": "uint256"
        }
      ],
      "payable": false,
      "stateMutability": "view",
      "type": "function"
    },
    {
      "constant": false,
      "inputs": [
        {
          "name": "_amount",
          "type": "uint256"
        }
      ],
      "name": "deposit",
      "outputs": [],
      "payable": false,
      "stateMutability": "nonpayable",
      "type": "function"
    },
    {
      "constant": true,
      "inputs": [],
      "name": "Bounty0xToken",
      "outputs": [
        {
          "name": "",
          "type": "address"
        }
      ],
      "payable": false,
      "stateMutability": "view",
      "type": "function"
    },
    {
      "constant": false,
      "inputs": [
        {
          "name": "_submissionIds",
          "type": "uint256[]"
        },
        {
          "name": "_from",
          "type": "address[]"
        },
        {
          "name": "_to",
          "type": "address[]"
        },
        {
          "name": "_amounts",
          "type": "uint256[]"
        }
      ],
      "name": "releaseManyStakes",
      "outputs": [],
      "payable": false,
      "stateMutability": "nonpayable",
      "type": "function"
    },
    {
      "constant": false,
      "inputs": [
        {
          "name": "newOwner",
          "type": "address"
        }
      ],
      "name": "transferOwnership",
      "outputs": [],
      "payable": false,
      "stateMutability": "nonpayable",
      "type": "function"
    },
    {
      "constant": false,
      "inputs": [
        {
          "name": "_submissionId",
          "type": "uint256"
        },
        {
          "name": "_from",
          "type": "address"
        },
        {
          "name": "_to",
          "type": "address"
        },
        {
          "name": "_amount",
          "type": "uint256"
        }
      ],
      "name": "releaseStake",
      "outputs": [],
      "payable": false,
      "stateMutability": "nonpayable",
      "type": "function"
    },
    {
      "inputs": [
        {
          "name": "_bounty0xToken",
          "type": "address"
        }
      ],
      "payable": false,
      "stateMutability": "nonpayable",
      "type": "constructor"
    },
    {
      "anonymous": false,
      "inputs": [
        {
          "indexed": false,
          "name": "depositor",
          "type": "address"
        },
        {
          "indexed": false,
          "name": "amount",
          "type": "uint256"
        },
        {
          "indexed": false,
          "name": "balance",
          "type": "uint256"
        }
      ],
      "name": "Deposit",
      "type": "event"
    },
    {
      "anonymous": false,
      "inputs": [
        {
          "indexed": false,
          "name": "depositor",
          "type": "address"
        },
        {
          "indexed": false,
          "name": "amount",
          "type": "uint256"
        },
        {
          "indexed": false,
          "name": "balance",
          "type": "uint256"
        }
      ],
      "name": "Withdraw",
      "type": "event"
    },
    {
      "anonymous": false,
      "inputs": [
        {
          "indexed": false,
          "name": "submissionId",
          "type": "uint256"
        },
        {
          "indexed": false,
          "name": "hunter",
          "type": "address"
        },
        {
          "indexed": false,
          "name": "amount",
          "type": "uint256"
        }
      ],
      "name": "Stake",
      "type": "event"
    },
    {
      "anonymous": false,
      "inputs": [
        {
          "indexed": false,
          "name": "submissionId",
          "type": "uint256"
        },
        {
          "indexed": false,
          "name": "from",
          "type": "address"
        },
        {
          "indexed": false,
          "name": "to",
          "type": "address"
        },
        {
          "indexed": false,
          "name": "amount",
          "type": "uint256"
        }
      ],
      "name": "StakeReleased",
      "type": "event"
    },
    {
      "anonymous": false,
      "inputs": [
        {
          "indexed": true,
          "name": "previousOwner",
          "type": "address"
        },
        {
          "indexed": true,
          "name": "newOwner",
          "type": "address"
        }
      ],
      "name": "OwnershipTransferred",
      "type": "event"
    }
  ],
  "bytecode": "0x6060604052341561000f57600080fd5b60405160208061184e83398101604052808051906020019091905050336000806101000a81548173ffffffffffffffffffffffffffffffffffffffff021916908373ffffffffffffffffffffffffffffffffffffffff16021790555080600160006101000a81548173ffffffffffffffffffffffffffffffffffffffff021916908373ffffffffffffffffffffffffffffffffffffffff16021790555050611792806100bc6000396000f3006060604052600436106100af576000357c0100000000000000000000000000000000000000000000000000000000900463ffffffff16806327e235e3146100b45780632e1a7d4d146101015780637b0472f0146101245780638da5cb5b1461015057806397e8e520146101a5578063a9a3bba41461023f578063b6b55f2514610295578063c7aaa83f146102b8578063dc5fe3491461030d578063f2fde38b14610427578063ff9c843714610460575b600080fd5b34156100bf57600080fd5b6100eb600480803573ffffffffffffffffffffffffffffffffffffffff169060200190919050506104ca565b6040518082815260200191505060405180910390f35b341561010c57600080fd5b61012260048080359060200190919050506104e2565b005b341561012f57600080fd5b61014e6004808035906020019091908035906020019091905050610757565b005b341561015b57600080fd5b610163610956565b604051808273ffffffffffffffffffffffffffffffffffffffff1673ffffffffffffffffffffffffffffffffffffffff16815260200191505060405180910390f35b34156101b057600080fd5b61023d6004808035906020019082018035906020019080806020026020016040519081016040528093929190818152602001838360200280828437820191505050505050919080359060200190820180359060200190808060200260200160405190810160405280939291908181526020018383602002808284378201915050505050509190505061097b565b005b341561024a57600080fd5b61027f600480803590602001909190803573ffffffffffffffffffffffffffffffffffffffff16906020019091905050610c51565b6040518082815260200191505060405180910390f35b34156102a057600080fd5b6102b66004808035906020019091905050610c76565b005b34156102c357600080fd5b6102cb610ed1565b604051808273ffffffffffffffffffffffffffffffffffffffff1673ffffffffffffffffffffffffffffffffffffffff16815260200191505060405180910390f35b341561031857600080fd5b610425600480803590602001908201803590602001908080602002602001604051908101604052809392919081815260200183836020028082843782019150505050505091908035906020019082018035906020019080806020026020016040519081016040528093929190818152602001838360200280828437820191505050505050919080359060200190820180359060200190808060200260200160405190810160405280939291908181526020018383602002808284378201915050505050509190803590602001908201803590602001908080602002602001604051908101604052809392919081815260200183836020028082843782019150505050505091905050610ef7565b005b341561043257600080fd5b61045e600480803573ffffffffffffffffffffffffffffffffffffffff16906020019091905050611339565b005b341561046b57600080fd5b6104c8600480803590602001909190803573ffffffffffffffffffffffffffffffffffffffff1690602001909190803573ffffffffffffffffffffffffffffffffffffffff1690602001909190803590602001909190505061148e565b005b60026020528060005260406000206000915090505481565b80600260003373ffffffffffffffffffffffffffffffffffffffff1673ffffffffffffffffffffffffffffffffffffffff168152602001908152602001600020541015151561053057600080fd5b610579600260003373ffffffffffffffffffffffffffffffffffffffff1673ffffffffffffffffffffffffffffffffffffffff168152602001908152602001600020548261172f565b600260003373ffffffffffffffffffffffffffffffffffffffff1673ffffffffffffffffffffffffffffffffffffffff16815260200190815260200160002081905550600160009054906101000a900473ffffffffffffffffffffffffffffffffffffffff1673ffffffffffffffffffffffffffffffffffffffff1663a9059cbb33836040518363ffffffff167c0100000000000000000000000000000000000000000000000000000000028152600401808373ffffffffffffffffffffffffffffffffffffffff1673ffffffffffffffffffffffffffffffffffffffff16815260200182815260200192505050602060405180830381600087803b151561068057600080fd5b5af1151561068d57600080fd5b5050506040518051905015156106a257600080fd5b7ff279e6a1f5e320cca91135676d9cb6e44ca8a08c0b88342bcdb1144f6511b5683382600260003373ffffffffffffffffffffffffffffffffffffffff1673ffffffffffffffffffffffffffffffffffffffff16815260200190815260200160002054604051808473ffffffffffffffffffffffffffffffffffffffff1673ffffffffffffffffffffffffffffffffffffffff168152602001838152602001828152602001935050505060405180910390a150565b80600260003373ffffffffffffffffffffffffffffffffffffffff1673ffffffffffffffffffffffffffffffffffffffff16815260200190815260200160002054101515156107a557600080fd5b6107ee600260003373ffffffffffffffffffffffffffffffffffffffff1673ffffffffffffffffffffffffffffffffffffffff168152602001908152602001600020548261172f565b600260003373ffffffffffffffffffffffffffffffffffffffff1673ffffffffffffffffffffffffffffffffffffffff1681526020019081526020016000208190555061088b6003600084815260200190815260200160002060003373ffffffffffffffffffffffffffffffffffffffff1673ffffffffffffffffffffffffffffffffffffffff1681526020019081526020016000205482611748565b6003600084815260200190815260200160002060003373ffffffffffffffffffffffffffffffffffffffff1673ffffffffffffffffffffffffffffffffffffffff168152602001908152602001600020819055507f02567b2553aeb44e4ddd5d68462774dc3de158cb0f2c2da1740e729b22086aff823383604051808481526020018373ffffffffffffffffffffffffffffffffffffffff1673ffffffffffffffffffffffffffffffffffffffff168152602001828152602001935050505060405180910390a15050565b6000809054906101000a900473ffffffffffffffffffffffffffffffffffffffff1681565b6000806000809250600091505b83518210156109c1576109b28385848151811015156109a357fe5b90602001906020020151611748565b92508180600101925050610988565b82600260003373ffffffffffffffffffffffffffffffffffffffff1673ffffffffffffffffffffffffffffffffffffffff1681526020019081526020016000205410151515610a0f57600080fd5b610a58600260003373ffffffffffffffffffffffffffffffffffffffff1673ffffffffffffffffffffffffffffffffffffffff168152602001908152602001600020548461172f565b600260003373ffffffffffffffffffffffffffffffffffffffff1673ffffffffffffffffffffffffffffffffffffffff16815260200190815260200160002081905550600090505b8451811015610c4a57610b31600360008784815181101515610abe57fe5b90602001906020020151815260200190815260200160002060003373ffffffffffffffffffffffffffffffffffffffff1673ffffffffffffffffffffffffffffffffffffffff168152602001908152602001600020548583815181101515610b2257fe5b90602001906020020151611748565b600360008784815181101515610b4357fe5b90602001906020020151815260200190815260200160002060003373ffffffffffffffffffffffffffffffffffffffff1673ffffffffffffffffffffffffffffffffffffffff168152602001908152602001600020819055507f02567b2553aeb44e4ddd5d68462774dc3de158cb0f2c2da1740e729b22086aff8582815181101515610bcb57fe5b90602001906020020151338684815181101515610be457fe5b90602001906020020151604051808481526020018373ffffffffffffffffffffffffffffffffffffffff1673ffffffffffffffffffffffffffffffffffffffff168152602001828152602001935050505060405180910390a18080600101915050610aa0565b5050505050565b6003602052816000526040600020602052806000526040600020600091509150505481565b600160009054906101000a900473ffffffffffffffffffffffffffffffffffffffff1673ffffffffffffffffffffffffffffffffffffffff166323b872dd3330846040518463ffffffff167c0100000000000000000000000000000000000000000000000000000000028152600401808473ffffffffffffffffffffffffffffffffffffffff1673ffffffffffffffffffffffffffffffffffffffff1681526020018373ffffffffffffffffffffffffffffffffffffffff1673ffffffffffffffffffffffffffffffffffffffff1681526020018281526020019350505050602060405180830381600087803b1515610d6e57600080fd5b5af11515610d7b57600080fd5b505050604051805190501515610d9057600080fd5b610dd9600260003373ffffffffffffffffffffffffffffffffffffffff1673ffffffffffffffffffffffffffffffffffffffff1681526020019081526020016000205482611748565b600260003373ffffffffffffffffffffffffffffffffffffffff1673ffffffffffffffffffffffffffffffffffffffff168152602001908152602001600020819055507f90890809c654f11d6e72a28fa60149770a0d11ec6c92319d6ceb2bb0a4ea1a153382600260003373ffffffffffffffffffffffffffffffffffffffff1673ffffffffffffffffffffffffffffffffffffffff16815260200190815260200160002054604051808473ffffffffffffffffffffffffffffffffffffffff1673ffffffffffffffffffffffffffffffffffffffff168152602001838152602001828152602001935050505060405180910390a150565b600160009054906101000a900473ffffffffffffffffffffffffffffffffffffffff1681565b60008060009054906101000a900473ffffffffffffffffffffffffffffffffffffffff1673ffffffffffffffffffffffffffffffffffffffff163373ffffffffffffffffffffffffffffffffffffffff16141515610f5457600080fd5b83518551148015610f66575082518551145b8015610f73575081518551145b1515610f7e57600080fd5b600090505b8451811015611332578181815181101515610f9a57fe5b90602001906020020151600360008784815181101515610fb657fe5b90602001906020020151815260200190815260200160002060008684815181101515610fde57fe5b9060200190602002015173ffffffffffffffffffffffffffffffffffffffff1673ffffffffffffffffffffffffffffffffffffffff168152602001908152602001600020541015151561103057600080fd5b6110cf60036000878481518110151561104557fe5b9060200190602002015181526020019081526020016000206000868481518110151561106d57fe5b9060200190602002015173ffffffffffffffffffffffffffffffffffffffff1673ffffffffffffffffffffffffffffffffffffffff1681526020019081526020016000205483838151811015156110c057fe5b9060200190602002015161172f565b6003600087848151811015156110e157fe5b9060200190602002015181526020019081526020016000206000868481518110151561110957fe5b9060200190602002015173ffffffffffffffffffffffffffffffffffffffff1673ffffffffffffffffffffffffffffffffffffffff168152602001908152602001600020819055506111c860026000858481518110151561116657fe5b9060200190602002015173ffffffffffffffffffffffffffffffffffffffff1673ffffffffffffffffffffffffffffffffffffffff1681526020019081526020016000205483838151811015156111b957fe5b90602001906020020151611748565b6002600085848151811015156111da57fe5b9060200190602002015173ffffffffffffffffffffffffffffffffffffffff1673ffffffffffffffffffffffffffffffffffffffff168152602001908152602001600020819055507fac8f720ed7882952a138b50752a3b3a7d82d0fbe16c51aa7e83a0599dbe17624858281518110151561125157fe5b90602001906020020151858381518110151561126957fe5b90602001906020020151858481518110151561128157fe5b90602001906020020151858581518110151561129957fe5b90602001906020020151604051808581526020018473ffffffffffffffffffffffffffffffffffffffff1673ffffffffffffffffffffffffffffffffffffffff1681526020018373ffffffffffffffffffffffffffffffffffffffff1673ffffffffffffffffffffffffffffffffffffffff16815260200182815260200194505050505060405180910390a18080600101915050610f83565b5050505050565b6000809054906101000a900473ffffffffffffffffffffffffffffffffffffffff1673ffffffffffffffffffffffffffffffffffffffff163373ffffffffffffffffffffffffffffffffffffffff1614151561139457600080fd5b600073ffffffffffffffffffffffffffffffffffffffff168173ffffffffffffffffffffffffffffffffffffffff16141515156113d057600080fd5b8073ffffffffffffffffffffffffffffffffffffffff166000809054906101000a900473ffffffffffffffffffffffffffffffffffffffff1673ffffffffffffffffffffffffffffffffffffffff167f8be0079c531659141344cd1fd0a4f28419497f9722a3daafe3b4186f6b6457e060405160405180910390a3806000806101000a81548173ffffffffffffffffffffffffffffffffffffffff021916908373ffffffffffffffffffffffffffffffffffffffff16021790555050565b6000809054906101000a900473ffffffffffffffffffffffffffffffffffffffff1673ffffffffffffffffffffffffffffffffffffffff163373ffffffffffffffffffffffffffffffffffffffff161415156114e957600080fd5b806003600086815260200190815260200160002060008573ffffffffffffffffffffffffffffffffffffffff1673ffffffffffffffffffffffffffffffffffffffff168152602001908152602001600020541015151561154857600080fd5b6115a26003600086815260200190815260200160002060008573ffffffffffffffffffffffffffffffffffffffff1673ffffffffffffffffffffffffffffffffffffffff168152602001908152602001600020548261172f565b6003600086815260200190815260200160002060008573ffffffffffffffffffffffffffffffffffffffff1673ffffffffffffffffffffffffffffffffffffffff1681526020019081526020016000208190555061163f600260008473ffffffffffffffffffffffffffffffffffffffff1673ffffffffffffffffffffffffffffffffffffffff1681526020019081526020016000205482611748565b600260008473ffffffffffffffffffffffffffffffffffffffff1673ffffffffffffffffffffffffffffffffffffffff168152602001908152602001600020819055507fac8f720ed7882952a138b50752a3b3a7d82d0fbe16c51aa7e83a0599dbe1762484848484604051808581526020018473ffffffffffffffffffffffffffffffffffffffff1673ffffffffffffffffffffffffffffffffffffffff1681526020018373ffffffffffffffffffffffffffffffffffffffff1673ffffffffffffffffffffffffffffffffffffffff16815260200182815260200194505050505060405180910390a150505050565b600082821115151561173d57fe5b818303905092915050565b600080828401905083811015151561175c57fe5b80915050929150505600a165627a7a72305820037ffa8f0f34660ca5520f0d969c494c223fb7dde27e1122c77afa11c3ebde0c0029",
  "source": "pragma solidity ^0.4.21;\n\nimport 'zeppelin-solidity/contracts/math/SafeMath.sol';\nimport 'zeppelin-solidity/contracts/ownership/Ownable.sol';\nimport 'zeppelin-solidity/contracts/token/ERC20.sol';\n\n\ncontract Bounty0xStaking is Ownable {\n\n    using SafeMath for uint256;\n\n    address public Bounty0xToken;\n\n    mapping (address => uint) public balances;\n\n    mapping (uint => mapping (address => uint)) public stakes; // mapping of submission ids to mapping of addresses that staked an amount of bounty token \n\n\n    event Deposit(address depositor, uint amount, uint balance);\n    event Withdraw(address depositor, uint amount, uint balance);\n\n    event Stake(uint submissionId, address hunter, uint amount);\n\n    event StakeReleased(uint submissionId, address from, address to, uint amount);\n\n\n    function Bounty0xStaking(address _bounty0xToken) public {\n        Bounty0xToken = _bounty0xToken;\n    }\n\n\n    function deposit(uint _amount) public {\n        //remember to call Token(address).approve(this, amount) or this contract will not be able to do the transfer on your behalf.\n        require(ERC20(Bounty0xToken).transferFrom(msg.sender, this, _amount));\n        balances[msg.sender] = SafeMath.add(balances[msg.sender], _amount);\n\n        emit Deposit(msg.sender, _amount, balances[msg.sender]);\n    }\n\n    function withdraw(uint _amount) public {\n        require(balances[msg.sender] >= _amount);\n        balances[msg.sender] = SafeMath.sub(balances[msg.sender], _amount);\n        require(ERC20(Bounty0xToken).transfer(msg.sender, _amount));\n        \n        emit Withdraw(msg.sender, _amount, balances[msg.sender]);\n    }\n\n\n    function stake(uint _submissionId, uint _amount) public {\n        require(balances[msg.sender] >= _amount);\n        balances[msg.sender] = SafeMath.sub(balances[msg.sender], _amount);\n        stakes[_submissionId][msg.sender] = SafeMath.add(stakes[_submissionId][msg.sender], _amount);\n\n        emit Stake(_submissionId, msg.sender, _amount);\n    }\n\n    function stakeToMany(uint[] _submissionIds, uint[] _amounts) public {\n        uint totalAmount = 0;\n        for (uint j = 0; j < _amounts.length; j++) {\n            totalAmount = SafeMath.add(totalAmount, _amounts[j]);\n        }\n        require(balances[msg.sender] >= totalAmount);\n        balances[msg.sender] = SafeMath.sub(balances[msg.sender], totalAmount);\n\n        for (uint i = 0; i < _submissionIds.length; i++) {\n            stakes[_submissionIds[i]][msg.sender] = SafeMath.add(stakes[_submissionIds[i]][msg.sender], _amounts[i]);\n\n            emit Stake(_submissionIds[i], msg.sender, _amounts[i]);\n        }\n    }\n    \n\n    function releaseStake(uint _submissionId, address _from, address _to, uint _amount) public onlyOwner {\n        require(stakes[_submissionId][_from] >= _amount);\n\n        stakes[_submissionId][_from] = SafeMath.sub(stakes[_submissionId][_from], _amount);\n        balances[_to] = SafeMath.add(balances[_to], _amount);\n\n        emit StakeReleased(_submissionId, _from, _to, _amount);\n    }\n\n    function releaseManyStakes(uint[] _submissionIds, address[] _from, address[] _to, uint[] _amounts) public onlyOwner {\n        require(_submissionIds.length == _from.length &&\n                _submissionIds.length == _to.length &&\n                _submissionIds.length == _amounts.length);\n\n        for (uint i = 0; i < _submissionIds.length; i++) {\n            require(stakes[_submissionIds[i]][_from[i]] >= _amounts[i]);\n            stakes[_submissionIds[i]][_from[i]] = SafeMath.sub(stakes[_submissionIds[i]][_from[i]], _amounts[i]);\n            balances[_to[i]] = SafeMath.add(balances[_to[i]], _amounts[i]);\n\n            emit StakeReleased(_submissionIds[i], _from[i], _to[i], _amounts[i]);\n        }\n    }\n\n}\n",
  "sourcePath": "/Users/Alexander/Desktop/Bounty0xStakingContract/contracts/Bounty0xStaking.sol",
  "compiler": {
    "name": "solc",
    "version": "0.4.21+commit.dfe3193c.Emscripten.clang"
  },
  "schemaVersion": "1.0.1",
  "updatedAt": "2018-03-21T14:29:45.523Z"
}